{
  "_format": "hh-sol-artifact-1",
  "contractName": "Auction",
  "sourceName": "src/contracts/DappAuction.sol",
  "abi": [
    {
      "inputs": [
        {
          "internalType": "uint256",
          "name": "_royaltyFee",
          "type": "uint256"
        }
      ],
      "stateMutability": "nonpayable",
      "type": "constructor"
    },
    {
      "anonymous": false,
      "inputs": [
        {
          "indexed": true,
          "internalType": "address",
          "name": "owner",
          "type": "address"
        },
        {
          "indexed": true,
          "internalType": "address",
          "name": "approved",
          "type": "address"
        },
        {
          "indexed": true,
          "internalType": "uint256",
          "name": "tokenId",
          "type": "uint256"
        }
      ],
      "name": "Approval",
      "type": "event"
    },
    {
      "anonymous": false,
      "inputs": [
        {
          "indexed": true,
          "internalType": "address",
          "name": "owner",
          "type": "address"
        },
        {
          "indexed": true,
          "internalType": "address",
          "name": "operator",
          "type": "address"
        },
        {
          "indexed": false,
          "internalType": "bool",
          "name": "approved",
          "type": "bool"
        }
      ],
      "name": "ApprovalForAll",
      "type": "event"
    },
    {
      "anonymous": false,
      "inputs": [
        {
          "indexed": true,
          "internalType": "uint256",
          "name": "tokenId",
          "type": "uint256"
        },
        {
          "indexed": false,
          "internalType": "address",
          "name": "seller",
          "type": "address"
        },
        {
          "indexed": false,
          "internalType": "address",
          "name": "owner",
          "type": "address"
        },
        {
          "indexed": false,
          "internalType": "uint256",
          "name": "price",
          "type": "uint256"
        },
        {
          "indexed": false,
          "internalType": "bool",
          "name": "sold",
          "type": "bool"
        }
      ],
      "name": "AuctionItemCreated",
      "type": "event"
    },
    {
      "anonymous": false,
      "inputs": [
        {
          "indexed": true,
          "internalType": "address",
          "name": "from",
          "type": "address"
        },
        {
          "indexed": true,
          "internalType": "address",
          "name": "to",
          "type": "address"
        },
        {
          "indexed": true,
          "internalType": "uint256",
          "name": "tokenId",
          "type": "uint256"
        }
      ],
      "name": "Transfer",
      "type": "event"
    },
    {
      "inputs": [
        {
          "internalType": "address",
          "name": "to",
          "type": "address"
        },
        {
          "internalType": "uint256",
          "name": "tokenId",
          "type": "uint256"
        }
      ],
      "name": "approve",
      "outputs": [],
      "stateMutability": "nonpayable",
      "type": "function"
    },
    {
      "inputs": [
        {
          "internalType": "address",
          "name": "owner",
          "type": "address"
        }
      ],
      "name": "balanceOf",
      "outputs": [
        {
          "internalType": "uint256",
          "name": "",
          "type": "uint256"
        }
      ],
      "stateMutability": "view",
      "type": "function"
    },
    {
      "inputs": [
        {
          "internalType": "uint256",
          "name": "tokenId",
          "type": "uint256"
        }
      ],
      "name": "buyAuctionedItem",
      "outputs": [],
      "stateMutability": "payable",
      "type": "function"
    },
    {
      "inputs": [
        {
          "internalType": "uint256",
          "name": "tokenId",
          "type": "uint256"
        },
        {
          "internalType": "uint256",
          "name": "price",
          "type": "uint256"
        }
      ],
      "name": "changePrice",
      "outputs": [],
      "stateMutability": "nonpayable",
      "type": "function"
    },
    {
      "inputs": [
        {
          "internalType": "uint256",
          "name": "tokenId",
          "type": "uint256"
        },
        {
          "internalType": "uint256",
          "name": "bid",
          "type": "uint256"
        }
      ],
      "name": "claimPrize",
      "outputs": [],
      "stateMutability": "nonpayable",
      "type": "function"
    },
    {
      "inputs": [
        {
          "internalType": "string",
          "name": "name",
          "type": "string"
        },
        {
          "internalType": "string",
          "name": "description",
          "type": "string"
        },
        {
          "internalType": "string",
          "name": "image",
          "type": "string"
        },
        {
          "internalType": "string",
          "name": "tokenURI",
          "type": "string"
        },
        {
          "internalType": "uint256",
          "name": "price",
          "type": "uint256"
        }
      ],
      "name": "createAuction",
      "outputs": [],
      "stateMutability": "payable",
      "type": "function"
    },
    {
      "inputs": [],
      "name": "getAllAuctions",
      "outputs": [
        {
          "components": [
            {
              "internalType": "string",
              "name": "name",
              "type": "string"
            },
            {
              "internalType": "string",
              "name": "description",
              "type": "string"
            },
            {
              "internalType": "string",
              "name": "image",
              "type": "string"
            },
            {
              "internalType": "uint256",
              "name": "tokenId",
              "type": "uint256"
            },
            {
              "internalType": "address",
              "name": "seller",
              "type": "address"
            },
            {
              "internalType": "address",
              "name": "owner",
              "type": "address"
            },
            {
              "internalType": "address",
              "name": "winner",
              "type": "address"
            },
            {
              "internalType": "uint256",
              "name": "price",
              "type": "uint256"
            },
            {
              "internalType": "bool",
              "name": "sold",
              "type": "bool"
            },
            {
              "internalType": "bool",
              "name": "live",
              "type": "bool"
            },
            {
              "internalType": "bool",
              "name": "biddable",
              "type": "bool"
            },
            {
              "internalType": "uint256",
              "name": "bids",
              "type": "uint256"
            },
            {
              "internalType": "uint256",
              "name": "duration",
              "type": "uint256"
            }
          ],
          "internalType": "struct Auction.AuctionStruct[]",
          "name": "Auctions",
          "type": "tuple[]"
        }
      ],
      "stateMutability": "view",
      "type": "function"
    },
    {
      "inputs": [
        {
          "internalType": "uint256",
          "name": "tokenId",
          "type": "uint256"
        }
      ],
      "name": "getApproved",
      "outputs": [
        {
          "internalType": "address",
          "name": "",
          "type": "address"
        }
      ],
      "stateMutability": "view",
      "type": "function"
    },
    {
      "inputs": [
        {
          "internalType": "uint256",
          "name": "id",
          "type": "uint256"
        }
      ],
      "name": "getAuction",
      "outputs": [
        {
          "components": [
            {
              "internalType": "string",
              "name": "name",
              "type": "string"
            },
            {
              "internalType": "string",
              "name": "description",
              "type": "string"
            },
            {
              "internalType": "string",
              "name": "image",
              "type": "string"
            },
            {
              "internalType": "uint256",
              "name": "tokenId",
              "type": "uint256"
            },
            {
              "internalType": "address",
              "name": "seller",
              "type": "address"
            },
            {
              "internalType": "address",
              "name": "owner",
              "type": "address"
            },
            {
              "internalType": "address",
              "name": "winner",
              "type": "address"
            },
            {
              "internalType": "uint256",
              "name": "price",
              "type": "uint256"
            },
            {
              "internalType": "bool",
              "name": "sold",
              "type": "bool"
            },
            {
              "internalType": "bool",
              "name": "live",
              "type": "bool"
            },
            {
              "internalType": "bool",
              "name": "biddable",
              "type": "bool"
            },
            {
              "internalType": "uint256",
              "name": "bids",
              "type": "uint256"
            },
            {
              "internalType": "uint256",
              "name": "duration",
              "type": "uint256"
            }
          ],
          "internalType": "struct Auction.AuctionStruct",
          "name": "",
          "type": "tuple"
        }
      ],
      "stateMutability": "view",
      "type": "function"
    },
    {
      "inputs": [
        {
          "internalType": "uint256",
          "name": "tokenId",
          "type": "uint256"
        }
      ],
      "name": "getBidders",
      "outputs": [
        {
          "components": [
            {
              "internalType": "address",
              "name": "bidder",
              "type": "address"
            },
            {
              "internalType": "uint256",
              "name": "price",
              "type": "uint256"
            },
            {
              "internalType": "uint256",
              "name": "timestamp",
              "type": "uint256"
            },
            {
              "internalType": "bool",
              "name": "refunded",
              "type": "bool"
            },
            {
              "internalType": "bool",
              "name": "won",
              "type": "bool"
            }
          ],
          "internalType": "struct Auction.BidderStruct[]",
          "name": "",
          "type": "tuple[]"
        }
      ],
      "stateMutability": "view",
      "type": "function"
    },
    {
      "inputs": [],
      "name": "getListingPrice",
      "outputs": [
        {
          "internalType": "uint256",
          "name": "",
          "type": "uint256"
        }
      ],
      "stateMutability": "view",
      "type": "function"
    },
    {
      "inputs": [],
      "name": "getLiveAuctions",
      "outputs": [
        {
          "components": [
            {
              "internalType": "string",
              "name": "name",
              "type": "string"
            },
            {
              "internalType": "string",
              "name": "description",
              "type": "string"
            },
            {
              "internalType": "string",
              "name": "image",
              "type": "string"
            },
            {
              "internalType": "uint256",
              "name": "tokenId",
              "type": "uint256"
            },
            {
              "internalType": "address",
              "name": "seller",
              "type": "address"
            },
            {
              "internalType": "address",
              "name": "owner",
              "type": "address"
            },
            {
              "internalType": "address",
              "name": "winner",
              "type": "address"
            },
            {
              "internalType": "uint256",
              "name": "price",
              "type": "uint256"
            },
            {
              "internalType": "bool",
              "name": "sold",
              "type": "bool"
            },
            {
              "internalType": "bool",
              "name": "live",
              "type": "bool"
            },
            {
              "internalType": "bool",
              "name": "biddable",
              "type": "bool"
            },
            {
              "internalType": "uint256",
              "name": "bids",
              "type": "uint256"
            },
            {
              "internalType": "uint256",
              "name": "duration",
              "type": "uint256"
            }
          ],
          "internalType": "struct Auction.AuctionStruct[]",
          "name": "Auctions",
          "type": "tuple[]"
        }
      ],
      "stateMutability": "view",
      "type": "function"
    },
    {
      "inputs": [],
      "name": "getMyAuctions",
      "outputs": [
        {
          "components": [
            {
              "internalType": "string",
              "name": "name",
              "type": "string"
            },
            {
              "internalType": "string",
              "name": "description",
              "type": "string"
            },
            {
              "internalType": "string",
              "name": "image",
              "type": "string"
            },
            {
              "internalType": "uint256",
              "name": "tokenId",
              "type": "uint256"
            },
            {
              "internalType": "address",
              "name": "seller",
              "type": "address"
            },
            {
              "internalType": "address",
              "name": "owner",
              "type": "address"
            },
            {
              "internalType": "address",
              "name": "winner",
              "type": "address"
            },
            {
              "internalType": "uint256",
              "name": "price",
              "type": "uint256"
            },
            {
              "internalType": "bool",
              "name": "sold",
              "type": "bool"
            },
            {
              "internalType": "bool",
              "name": "live",
              "type": "bool"
            },
            {
              "internalType": "bool",
              "name": "biddable",
              "type": "bool"
            },
            {
              "internalType": "uint256",
              "name": "bids",
              "type": "uint256"
            },
            {
              "internalType": "uint256",
              "name": "duration",
              "type": "uint256"
            }
          ],
          "internalType": "struct Auction.AuctionStruct[]",
          "name": "Auctions",
          "type": "tuple[]"
        }
      ],
      "stateMutability": "view",
      "type": "function"
    },
    {
      "inputs": [],
      "name": "getSoldAuction",
      "outputs": [
        {
          "components": [
            {
              "internalType": "string",
              "name": "name",
              "type": "string"
            },
            {
              "internalType": "string",
              "name": "description",
              "type": "string"
            },
            {
              "internalType": "string",
              "name": "image",
              "type": "string"
            },
            {
              "internalType": "uint256",
              "name": "tokenId",
              "type": "uint256"
            },
            {
              "internalType": "address",
              "name": "seller",
              "type": "address"
            },
            {
              "internalType": "address",
              "name": "owner",
              "type": "address"
            },
            {
              "internalType": "address",
              "name": "winner",
              "type": "address"
            },
            {
              "internalType": "uint256",
              "name": "price",
              "type": "uint256"
            },
            {
              "internalType": "bool",
              "name": "sold",
              "type": "bool"
            },
            {
              "internalType": "bool",
              "name": "live",
              "type": "bool"
            },
            {
              "internalType": "bool",
              "name": "biddable",
              "type": "bool"
            },
            {
              "internalType": "uint256",
              "name": "bids",
              "type": "uint256"
            },
            {
              "internalType": "uint256",
              "name": "duration",
              "type": "uint256"
            }
          ],
          "internalType": "struct Auction.AuctionStruct[]",
          "name": "Auctions",
          "type": "tuple[]"
        }
      ],
      "stateMutability": "view",
      "type": "function"
    },
    {
      "inputs": [],
      "name": "getUnsoldAuction",
      "outputs": [
        {
          "components": [
            {
              "internalType": "string",
              "name": "name",
              "type": "string"
            },
            {
              "internalType": "string",
              "name": "description",
              "type": "string"
            },
            {
              "internalType": "string",
              "name": "image",
              "type": "string"
            },
            {
              "internalType": "uint256",
              "name": "tokenId",
              "type": "uint256"
            },
            {
              "internalType": "address",
              "name": "seller",
              "type": "address"
            },
            {
              "internalType": "address",
              "name": "owner",
              "type": "address"
            },
            {
              "internalType": "address",
              "name": "winner",
              "type": "address"
            },
            {
              "internalType": "uint256",
              "name": "price",
              "type": "uint256"
            },
            {
              "internalType": "bool",
              "name": "sold",
              "type": "bool"
            },
            {
              "internalType": "bool",
              "name": "live",
              "type": "bool"
            },
            {
              "internalType": "bool",
              "name": "biddable",
              "type": "bool"
            },
            {
              "internalType": "uint256",
              "name": "bids",
              "type": "uint256"
            },
            {
              "internalType": "uint256",
              "name": "duration",
              "type": "uint256"
            }
          ],
          "internalType": "struct Auction.AuctionStruct[]",
          "name": "Auctions",
          "type": "tuple[]"
        }
      ],
      "stateMutability": "view",
      "type": "function"
    },
    {
      "inputs": [
        {
          "internalType": "address",
          "name": "owner",
          "type": "address"
        },
        {
          "internalType": "address",
          "name": "operator",
          "type": "address"
        }
      ],
      "name": "isApprovedForAll",
      "outputs": [
        {
          "internalType": "bool",
          "name": "",
          "type": "bool"
        }
      ],
      "stateMutability": "view",
      "type": "function"
    },
    {
      "inputs": [],
      "name": "name",
      "outputs": [
        {
          "internalType": "string",
          "name": "",
          "type": "string"
        }
      ],
      "stateMutability": "view",
      "type": "function"
    },
    {
      "inputs": [
        {
          "internalType": "uint256",
          "name": "tokenId",
          "type": "uint256"
        },
        {
          "internalType": "bool",
          "name": "biddable",
          "type": "bool"
        },
        {
          "internalType": "uint256",
          "name": "sec",
          "type": "uint256"
        },
        {
          "internalType": "uint256",
          "name": "min",
          "type": "uint256"
        },
        {
          "internalType": "uint256",
          "name": "hour",
          "type": "uint256"
        },
        {
          "internalType": "uint256",
          "name": "day",
          "type": "uint256"
        }
      ],
      "name": "offerAuction",
      "outputs": [],
      "stateMutability": "nonpayable",
      "type": "function"
    },
    {
      "inputs": [
        {
          "internalType": "uint256",
          "name": "tokenId",
          "type": "uint256"
        }
      ],
      "name": "ownerOf",
      "outputs": [
        {
          "internalType": "address",
          "name": "",
          "type": "address"
        }
      ],
      "stateMutability": "view",
      "type": "function"
    },
    {
      "inputs": [
        {
          "internalType": "uint256",
          "name": "tokenId",
          "type": "uint256"
        }
      ],
      "name": "placeBid",
      "outputs": [],
      "stateMutability": "payable",
      "type": "function"
    },
    {
      "inputs": [
        {
          "internalType": "address",
          "name": "from",
          "type": "address"
        },
        {
          "internalType": "address",
          "name": "to",
          "type": "address"
        },
        {
          "internalType": "uint256",
          "name": "tokenId",
          "type": "uint256"
        }
      ],
      "name": "safeTransferFrom",
      "outputs": [],
      "stateMutability": "nonpayable",
      "type": "function"
    },
    {
      "inputs": [
        {
          "internalType": "address",
          "name": "from",
          "type": "address"
        },
        {
          "internalType": "address",
          "name": "to",
          "type": "address"
        },
        {
          "internalType": "uint256",
          "name": "tokenId",
          "type": "uint256"
        },
        {
          "internalType": "bytes",
          "name": "data",
          "type": "bytes"
        }
      ],
      "name": "safeTransferFrom",
      "outputs": [],
      "stateMutability": "nonpayable",
      "type": "function"
    },
    {
      "inputs": [
        {
          "internalType": "address",
          "name": "operator",
          "type": "address"
        },
        {
          "internalType": "bool",
          "name": "approved",
          "type": "bool"
        }
      ],
      "name": "setApprovalForAll",
      "outputs": [],
      "stateMutability": "nonpayable",
      "type": "function"
    },
    {
      "inputs": [
        {
          "internalType": "uint256",
          "name": "_price",
          "type": "uint256"
        }
      ],
      "name": "setListingPrice",
      "outputs": [],
      "stateMutability": "nonpayable",
      "type": "function"
    },
    {
      "inputs": [
        {
          "internalType": "bytes4",
          "name": "interfaceId",
          "type": "bytes4"
        }
      ],
      "name": "supportsInterface",
      "outputs": [
        {
          "internalType": "bool",
          "name": "",
          "type": "bool"
        }
      ],
      "stateMutability": "view",
      "type": "function"
    },
    {
      "inputs": [],
      "name": "symbol",
      "outputs": [
        {
          "internalType": "string",
          "name": "",
          "type": "string"
        }
      ],
      "stateMutability": "view",
      "type": "function"
    },
    {
      "inputs": [
        {
          "internalType": "uint256",
          "name": "tokenId",
          "type": "uint256"
        }
      ],
      "name": "tokenURI",
      "outputs": [
        {
          "internalType": "string",
          "name": "",
          "type": "string"
        }
      ],
      "stateMutability": "view",
      "type": "function"
    },
    {
      "inputs": [
        {
          "internalType": "address",
          "name": "from",
          "type": "address"
        },
        {
          "internalType": "address",
          "name": "to",
          "type": "address"
        },
        {
          "internalType": "uint256",
          "name": "tokenId",
          "type": "uint256"
        }
      ],
      "name": "transferFrom",
      "outputs": [],
      "stateMutability": "nonpayable",
      "type": "function"
    }
  ],
  "bytecode": "0x608060405266470de4df820000600a553480156200001c57600080fd5b50604051620043e1380380620043e18339810160408190526200003f9162000170565b604080518082018252600f81526e44616c746f6e696320546f6b656e7360881b60208083019182528351808501909452600384526211105560ea1b9084015281519192916200009191600091620000ca565b508051620000a7906001906020840190620000ca565b5050600160075550600980546001600160a01b03191633179055600b55620001c7565b828054620000d8906200018a565b90600052602060002090601f016020900481019282620000fc576000855562000147565b82601f106200011757805160ff191683800117855562000147565b8280016001018555821562000147579182015b82811115620001475782518255916020019190600101906200012a565b506200015592915062000159565b5090565b5b808211156200015557600081556001016200015a565b6000602082840312156200018357600080fd5b5051919050565b600181811c908216806200019f57607f821691505b60208210811415620001c157634e487b7160e01b600052602260045260246000fd5b50919050565b61420a80620001d76000396000f3fe6080604052600436106101b75760003560e01c80637c726b69116100ec578063b88d4fde1161008a578063cbd2bdfd11610064578063cbd2bdfd146104cd578063db0bd5c9146104e2578063e985e9c5146104f7578063f5a06acf1461054057600080fd5b8063b88d4fde14610478578063bf65a33314610498578063c87b56dd146104ad57600080fd5b80639e78efd6116100c65780639e78efd614610403578063a22cb46514610418578063a923f18c14610438578063b3de019c1461045857600080fd5b80637c726b69146103bb57806395d89b41146103db5780639979ef45146103f057600080fd5b806333748dcb116101595780636352211e116101335780636352211e1461032e57806370a082311461034e57806378bd79351461036e5780637b1541401461039b57600080fd5b806333748dcb146102ce57806342842e0e146102e15780634fa7b5071461030157600080fd5b8063095ea7b311610195578063095ea7b31461024b57806312e855851461026d5780631d8df68f1461028c57806323b872dd146102ae57600080fd5b806301ffc9a7146101bc57806306fdde03146101f1578063081812fc14610213575b600080fd5b3480156101c857600080fd5b506101dc6101d7366004613960565b610553565b60405190151581526020015b60405180910390f35b3480156101fd57600080fd5b506102066105a5565b6040516101e891906139d5565b34801561021f57600080fd5b5061023361022e3660046139e8565b610637565b6040516001600160a01b0390911681526020016101e8565b34801561025757600080fd5b5061026b610266366004613a1d565b61065e565b005b34801561027957600080fd5b50600a545b6040519081526020016101e8565b34801561029857600080fd5b506102a1610779565b6040516101e89190613b47565b3480156102ba57600080fd5b5061026b6102c9366004613ba9565b610b17565b61026b6102dc366004613c91565b610b48565b3480156102ed57600080fd5b5061026b6102fc366004613ba9565b610e64565b34801561030d57600080fd5b5061032161031c3660046139e8565b610e7f565b6040516101e89190613d46565b34801561033a57600080fd5b506102336103493660046139e8565b610f31565b34801561035a57600080fd5b5061027e610369366004613dc1565b610f91565b34801561037a57600080fd5b5061038e6103893660046139e8565b611017565b6040516101e89190613ddc565b3480156103a757600080fd5b5061026b6103b6366004613def565b6112d7565b3480156103c757600080fd5b5061026b6103d63660046139e8565b611530565b3480156103e757600080fd5b5061020661155f565b61026b6103fe3660046139e8565b61156e565b34801561040f57600080fd5b506102a161179f565b34801561042457600080fd5b5061026b610433366004613e21565b611b34565b34801561044457600080fd5b5061026b610453366004613e54565b611b43565b34801561046457600080fd5b5061026b610473366004613def565b611cbe565b34801561048457600080fd5b5061026b610493366004613ea2565b611dbd565b3480156104a457600080fd5b506102a1611df5565b3480156104b957600080fd5b506102066104c83660046139e8565b61219c565b3480156104d957600080fd5b506102a16122ad565b3480156104ee57600080fd5b506102a16125b7565b34801561050357600080fd5b506101dc610512366004613f1e565b6001600160a01b03918216600090815260056020908152604080832093909416825291909152205460ff1690565b61026b61054e3660046139e8565b612962565b60006001600160e01b031982166380ac58cd60e01b148061058457506001600160e01b03198216635b5e139f60e01b145b8061059f57506301ffc9a760e01b6001600160e01b03198316145b92915050565b6060600080546105b490613f48565b80601f01602080910402602001604051908101604052809291908181526020018280546105e090613f48565b801561062d5780601f106106025761010080835404028352916020019161062d565b820191906000526020600020905b81548152906001019060200180831161061057829003601f168201915b5050505050905090565b600061064282612bd5565b506000908152600460205260409020546001600160a01b031690565b600061066982610f31565b9050806001600160a01b0316836001600160a01b031614156106dc5760405162461bcd60e51b815260206004820152602160248201527f4552433732313a20617070726f76616c20746f2063757272656e74206f776e656044820152603960f91b60648201526084015b60405180910390fd5b336001600160a01b03821614806106f857506106f88133610512565b61076a5760405162461bcd60e51b815260206004820152603d60248201527f4552433732313a20617070726f76652063616c6c6572206973206e6f7420746f60448201527f6b656e206f776e6572206f7220617070726f76656420666f7220616c6c00000060648201526084016106d3565b6107748383612c34565b505050565b6060600061078660085490565b90506000805b828110156107df57600c60006107a3836001613f99565b815260208101919091526040016000206008015460ff16156107cd57816107c981613fb1565b9250505b806107d781613fb1565b91505061078c565b508067ffffffffffffffff8111156107f9576107f9613be5565b60405190808252806020026020018201604052801561083257816020015b61081f6137cd565b8152602001906001900390816108175790505b5092506000805b83811015610b1057600c6000610850836001613f99565b815260208101919091526040016000206008015460ff1615610afe57600c600061087b836001613f99565b8152602001908152602001600020604051806101a00160405290816000820180546108a590613f48565b80601f01602080910402602001604051908101604052809291908181526020018280546108d190613f48565b801561091e5780601f106108f35761010080835404028352916020019161091e565b820191906000526020600020905b81548152906001019060200180831161090157829003601f168201915b5050505050815260200160018201805461093790613f48565b80601f016020809104026020016040519081016040528092919081815260200182805461096390613f48565b80156109b05780601f10610985576101008083540402835291602001916109b0565b820191906000526020600020905b81548152906001019060200180831161099357829003601f168201915b505050505081526020016002820180546109c990613f48565b80601f01602080910402602001604051908101604052809291908181526020018280546109f590613f48565b8015610a425780601f10610a1757610100808354040283529160200191610a42565b820191906000526020600020905b815481529060010190602001808311610a2557829003601f168201915b50505091835250506003820154602082015260048201546001600160a01b0390811660408301526005830154811660608301526006830154166080820152600782015460a0820152600882015460ff808216151560c08401526101008083048216151560e085015262010000909204161515908201526009820154610120820152600a90910154610140909101528551869084908110610ae457610ae4613fcc565b60200260200101819052508180610afa90613fb1565b9250505b80610b0881613fb1565b915050610839565b5050505090565b610b213382612ca2565b610b3d5760405162461bcd60e51b81526004016106d390613fe2565b610774838383612d20565b610b50612e84565b60008111610bb35760405162461bcd60e51b815260206004820152602a60248201527f53616c6573207072696365206d7573742062652067726561746572207468616e60448201526910181032ba3432b9399760b11b60648201526084016106d3565b600a54341015610c145760405162461bcd60e51b815260206004820152602660248201527f5072696365206d75737420626520757020746f20746865206c697374696e6720604482015265383934b1b29760d11b60648201526084016106d3565b610c1d82612ede565b610c605760405162461bcd60e51b815260206004820152601460248201527321b7bab632103737ba1036b4b73a103a37b5b2b760611b60448201526064016106d3565b6000610c6b60085490565b9050610c756137cd565b60608101829052868152602081018690526040810185905260e08101839052610ca16000808080612f18565b610180820152336080820181905260a08201526000828152600c60209081526040909120825180518493610cd9928492910190613856565b506020828101518051610cf29260018501920190613856565b5060408201518051610d0e916002840191602090910190613856565b506060820151600382015560808201516004820180546001600160a01b03199081166001600160a01b039384161790915560a0840151600584018054831691841691909117905560c084015160068401805490921690831617905560e083015160078301556101008084015160088401805461012087015161014088015161ffff1990921693151561ff001916939093179215159093029190911762ff00001916620100009215159290920291909117905561016083015160098084019190915561018090930151600a928301556000858152600d60205260409020805460ff1916600117905591549054610e07929190911690612f7a565b604080513381526000602082018190528183018690526060820152905183917fa693a8f68fe4df789541ddd1b84d32ccaea90adddcc88406b4bbbf6466328d3c919081900360800190a25050610e5d6001600755565b5050505050565b61077483838360405180602001604052806000815250611dbd565b6060600f6000838152602001908152602001600020805480602002602001604051908101604052809291908181526020016000905b82821015610f265760008481526020908190206040805160a0810182526004860290920180546001600160a01b03168352600180820154848601526002820154928401929092526003015460ff8082161515606085015261010090910416151560808301529083529092019101610eb4565b505050509050919050565b6000818152600260205260408120546001600160a01b03168061059f5760405162461bcd60e51b8152602060048201526018602482015277115490cdcc8c4e881a5b9d985b1a59081d1bdad95b88125160421b60448201526064016106d3565b60006001600160a01b038216610ffb5760405162461bcd60e51b815260206004820152602960248201527f4552433732313a2061646472657373207a65726f206973206e6f7420612076616044820152683634b21037bbb732b960b91b60648201526084016106d3565b506001600160a01b031660009081526003602052604090205490565b61101f6137cd565b6000828152600d602052604090205460ff1661107d5760405162461bcd60e51b815260206004820152601860248201527f41756374696f6e6564204974656d206e6f7420666f756e64000000000000000060448201526064016106d3565b6000828152600c60205260409081902081516101a081019092528054829082906110a690613f48565b80601f01602080910402602001604051908101604052809291908181526020018280546110d290613f48565b801561111f5780601f106110f45761010080835404028352916020019161111f565b820191906000526020600020905b81548152906001019060200180831161110257829003601f168201915b5050505050815260200160018201805461113890613f48565b80601f016020809104026020016040519081016040528092919081815260200182805461116490613f48565b80156111b15780601f10611186576101008083540402835291602001916111b1565b820191906000526020600020905b81548152906001019060200180831161119457829003601f168201915b505050505081526020016002820180546111ca90613f48565b80601f01602080910402602001604051908101604052809291908181526020018280546111f690613f48565b80156112435780601f1061121857610100808354040283529160200191611243565b820191906000526020600020905b81548152906001019060200180831161122657829003601f168201915b50505091835250506003820154602082015260048201546001600160a01b0390811660408301526005830154811660608301526006830154166080820152600782015460a0820152600882015460ff808216151560c08401526101008083048216151560e085015262010000909204161515908201526009820154610120820152600a909101546101409091015292915050565b6000828152600c60205260408120600a0154906112f690808080612f18565b116113385760405162461bcd60e51b815260206004820152601260248201527141756374696f6e207374696c6c204c69766560701b60448201526064016106d3565b6000828152600c60205260409020600601546001600160a01b0316331461139a5760405162461bcd60e51b81526020600482015260166024820152752cb7ba9030b932903737ba103a3432903bb4b73732b960511b60448201526064016106d3565b6000828152600f60205260409020805460019190839081106113be576113be613fcc565b60009182526020808320600492830201600301805461ff0019166101009515159590950294909417909355848252600c909252604081206007810154928101546006820180546001600160a01b031916905560088201805461ffff1916600117905560099091018290556001600160a01b03169061143e90808080612f18565b6000858152600c60205260408120600a0191909155600b54606490611463908561402f565b61146d919061404e565b6000868152600c602052604090206005015490915061149e906001600160a01b03166114998386614070565b612f7a565b6114a88282612f7a565b6040516323b872dd60e01b8152306004820181905233602483015260448201879052906323b872dd90606401600060405180830381600087803b1580156114ee57600080fd5b505af1158015611502573d6000803e3d6000fd5b5050506000868152600c6020526040902060050180546001600160a01b0319163317905550610e5d85612fe1565b6009546001600160a01b0316331461155a5760405162461bcd60e51b81526004016106d390614087565b600a55565b6060600180546105b490613f48565b6000818152600c60205260409020600701543410156115c55760405162461bcd60e51b8152602060048201526013602482015272125b9cdd59999a58da595b9d08105b5bdd5b9d606a1b60448201526064016106d3565b6115d3600080600080612f18565b6000828152600c60205260409020600a01541161162a5760405162461bcd60e51b815260206004820152601560248201527441756374696f6e206e6f7420617661696c61626c6560581b60448201526064016106d3565b6000818152600c602052604090206008015462010000900460ff166116915760405162461bcd60e51b815260206004820152601860248201527f41756374696f6e206f6e6c7920666f722062696464696e67000000000000000060448201526064016106d3565b6040805160a08101825260009181018290526060810182905260808101829052338152346020820152906116c790808080612f18565b60408083019182526000848152600f6020908152828220805460018181018355918452828420875160049092020180546001600160a01b039092166001600160a01b0319909216919091178155828701519181019190915593516002850155606085015160039094018054608087015115156101000261ff00199615159690961661ffff199091161794909417909355848152600c909252812060090180549161177083613fb1565b9091555050506000908152600c6020526040902034600782015560060180546001600160a01b03191633179055565b606060006117ac60085490565b90506000805b8281101561180457600c60006117c9836001613f99565b815260208101919091526040016000206008015460ff166117f257816117ee81613fb1565b9250505b806117fc81613fb1565b9150506117b2565b508067ffffffffffffffff81111561181e5761181e613be5565b60405190808252806020026020018201604052801561185757816020015b6118446137cd565b81526020019060019003908161183c5790505b5092506000805b83811015610b1057600c6000611875836001613f99565b815260208101919091526040016000206008015460ff16611b2257600c600061189f836001613f99565b8152602001908152602001600020604051806101a00160405290816000820180546118c990613f48565b80601f01602080910402602001604051908101604052809291908181526020018280546118f590613f48565b80156119425780601f1061191757610100808354040283529160200191611942565b820191906000526020600020905b81548152906001019060200180831161192557829003601f168201915b5050505050815260200160018201805461195b90613f48565b80601f016020809104026020016040519081016040528092919081815260200182805461198790613f48565b80156119d45780601f106119a9576101008083540402835291602001916119d4565b820191906000526020600020905b8154815290600101906020018083116119b757829003601f168201915b505050505081526020016002820180546119ed90613f48565b80601f0160208091040260200160405190810160405280929190818152602001828054611a1990613f48565b8015611a665780601f10611a3b57610100808354040283529160200191611a66565b820191906000526020600020905b815481529060010190602001808311611a4957829003601f168201915b50505091835250506003820154602082015260048201546001600160a01b0390811660408301526005830154811660608301526006830154166080820152600782015460a0820152600882015460ff808216151560c08401526101008083048216151560e085015262010000909204161515908201526009820154610120820152600a90910154610140909101528551869084908110611b0857611b08613fcc565b60200260200101819052508180611b1e90613fb1565b9250505b80611b2c81613fb1565b91505061185e565b611b3f3383836131c2565b5050565b6000868152600c60205260409020600501546001600160a01b03163314611b7c5760405162461bcd60e51b81526004016106d390614087565b6000868152600c602052604090206009015415611bdb5760405162461bcd60e51b815260206004820152601f60248201527f57696e6e65722073686f756c6420636c61696d207072697a652066697273740060448201526064016106d3565b6000868152600c6020526040902060080154610100900460ff16611c6357611c04306001611b34565b6040516323b872dd60e01b8152336004820152306024820181905260448201889052906323b872dd90606401600060405180830381600087803b158015611c4a57600080fd5b505af1158015611c5e573d6000803e3d6000fd5b505050505b6000868152600c6020526040812060098101919091556008018054861515620100000262ffffff1990911617610100179055611ca184848484612f18565b6000968752600c6020526040909620600a01959095555050505050565b6000828152600c60205260409020600501546001600160a01b03163314611cf75760405162461bcd60e51b81526004016106d390614087565b6000828152600c60205260408120600a015490611d1690808080612f18565b11611d585760405162461bcd60e51b815260206004820152601260248201527141756374696f6e207374696c6c204c69766560701b60448201526064016106d3565b60008111611da85760405162461bcd60e51b815260206004820152601f60248201527f5072696365206d7573742062652067726561746572207468616e207a65726f0060448201526064016106d3565b6000918252600c602052604090912060070155565b611dc73383612ca2565b611de35760405162461bcd60e51b81526004016106d390613fe2565b611def84848484613291565b50505050565b60606000611e0260085490565b90506000805b82811015611e635733600c6000611e20846001613f99565b81526020810191909152604001600020600501546001600160a01b03161415611e515781611e4d81613fb1565b9250505b80611e5b81613fb1565b915050611e08565b508067ffffffffffffffff811115611e7d57611e7d613be5565b604051908082528060200260200182016040528015611eb657816020015b611ea36137cd565b815260200190600190039081611e9b5790505b5092506000805b83811015610b105733600c6000611ed5846001613f99565b81526020810191909152604001600020600501546001600160a01b0316141561218a57600c6000611f07836001613f99565b8152602001908152602001600020604051806101a0016040529081600082018054611f3190613f48565b80601f0160208091040260200160405190810160405280929190818152602001828054611f5d90613f48565b8015611faa5780601f10611f7f57610100808354040283529160200191611faa565b820191906000526020600020905b815481529060010190602001808311611f8d57829003601f168201915b50505050508152602001600182018054611fc390613f48565b80601f0160208091040260200160405190810160405280929190818152602001828054611fef90613f48565b801561203c5780601f106120115761010080835404028352916020019161203c565b820191906000526020600020905b81548152906001019060200180831161201f57829003601f168201915b5050505050815260200160028201805461205590613f48565b80601f016020809104026020016040519081016040528092919081815260200182805461208190613f48565b80156120ce5780601f106120a3576101008083540402835291602001916120ce565b820191906000526020600020905b8154815290600101906020018083116120b157829003601f168201915b50505091835250506003820154602082015260048201546001600160a01b0390811660408301526005830154811660608301526006830154166080820152600782015460a0820152600882015460ff808216151560c08401526101008083048216151560e085015262010000909204161515908201526009820154610120820152600a9091015461014090910152855186908490811061217057612170613fcc565b6020026020010181905250818061218690613fb1565b9250505b8061219481613fb1565b915050611ebd565b60606121a782612bd5565b600082815260066020526040812080546121c090613f48565b80601f01602080910402602001604051908101604052809291908181526020018280546121ec90613f48565b80156122395780601f1061220e57610100808354040283529160200191612239565b820191906000526020600020905b81548152906001019060200180831161221c57829003601f168201915b50505050509050600061225760408051602081019091526000815290565b905080516000141561226a575092915050565b81511561229c5780826040516020016122849291906140b4565b60405160208183030381529060405292505050919050565b6122a5846132c4565b949350505050565b606060006122ba60085490565b90508067ffffffffffffffff8111156122d5576122d5613be5565b60405190808252806020026020018201604052801561230e57816020015b6122fb6137cd565b8152602001906001900390816122f35790505b50915060005b818110156125b257600c600061232b836001613f99565b8152602001908152602001600020604051806101a001604052908160008201805461235590613f48565b80601f016020809104026020016040519081016040528092919081815260200182805461238190613f48565b80156123ce5780601f106123a3576101008083540402835291602001916123ce565b820191906000526020600020905b8154815290600101906020018083116123b157829003601f168201915b505050505081526020016001820180546123e790613f48565b80601f016020809104026020016040519081016040528092919081815260200182805461241390613f48565b80156124605780601f1061243557610100808354040283529160200191612460565b820191906000526020600020905b81548152906001019060200180831161244357829003601f168201915b5050505050815260200160028201805461247990613f48565b80601f01602080910402602001604051908101604052809291908181526020018280546124a590613f48565b80156124f25780601f106124c7576101008083540402835291602001916124f2565b820191906000526020600020905b8154815290600101906020018083116124d557829003601f168201915b50505091835250506003820154602082015260048201546001600160a01b0390811660408301526005830154811660608301526006830154166080820152600782015460a0820152600882015460ff808216151560c08401526101008083048216151560e085015262010000909204161515908201526009820154610120820152600a9091015461014090910152835184908390811061259457612594613fcc565b602002602001018190525080806125aa90613fb1565b915050612314565b505090565b606060006125c460085490565b90506000805b82811015612627576125e0600080600080612f18565b600c60006125ef846001613f99565b8152602001908152602001600020600a01541115612615578161261181613fb1565b9250505b8061261f81613fb1565b9150506125ca565b508067ffffffffffffffff81111561264157612641613be5565b60405190808252806020026020018201604052801561267a57816020015b6126676137cd565b81526020019060019003908161265f5790505b5092506000805b83811015610b1057612697600080600080612f18565b600c60006126a6846001613f99565b8152602001908152602001600020600a0154111561295057600c60006126cd836001613f99565b8152602001908152602001600020604051806101a00160405290816000820180546126f790613f48565b80601f016020809104026020016040519081016040528092919081815260200182805461272390613f48565b80156127705780601f1061274557610100808354040283529160200191612770565b820191906000526020600020905b81548152906001019060200180831161275357829003601f168201915b5050505050815260200160018201805461278990613f48565b80601f01602080910402602001604051908101604052809291908181526020018280546127b590613f48565b80156128025780601f106127d757610100808354040283529160200191612802565b820191906000526020600020905b8154815290600101906020018083116127e557829003601f168201915b5050505050815260200160028201805461281b90613f48565b80601f016020809104026020016040519081016040528092919081815260200182805461284790613f48565b80156128945780601f1061286957610100808354040283529160200191612894565b820191906000526020600020905b81548152906001019060200180831161287757829003601f168201915b50505091835250506003820154602082015260048201546001600160a01b0390811660408301526005830154811660608301526006830154166080820152600782015460a0820152600882015460ff808216151560c08401526101008083048216151560e085015262010000909204161515908201526009820154610120820152600a9091015461014090910152855186908490811061293657612936613fcc565b6020026020010181905250818061294c90613fb1565b9250505b8061295a81613fb1565b915050612681565b61296a612e84565b6000818152600c60205260409020600701543410156129c15760405162461bcd60e51b8152602060048201526013602482015272125b9cdd59999a58da595b9d08105b5bdd5b9d606a1b60448201526064016106d3565b6129cf600080600080612f18565b6000828152600c60205260409020600a015411612a265760405162461bcd60e51b815260206004820152601560248201527441756374696f6e206e6f7420617661696c61626c6560581b60448201526064016106d3565b6000818152600c602052604090206008015462010000900460ff1615612a8e5760405162461bcd60e51b815260206004820152601960248201527f41756374696f6e206f6e6c7920666f722070757263686173650000000000000060448201526064016106d3565b6000818152600c60205260408120600481015460088201805461ffff1916600117905560099091018290556001600160a01b031690612acf90808080612f18565b6000838152600c60205260408120600a0191909155600b54606490612af4903461402f565b612afe919061404e565b6000848152600c6020526040902060050154909150612b2a906001600160a01b03166114998334614070565b612b348282612f7a565b6000838152600c6020526040908190206003015490516323b872dd60e01b8152306004820181905233602483015260448201929092526323b872dd90606401600060405180830381600087803b158015612b8d57600080fd5b505af1158015612ba1573d6000803e3d6000fd5b5050506000848152600c6020526040902060050180546001600160a01b0319163317905550612bd29150612fda9050565b50565b6000818152600260205260409020546001600160a01b0316612bd25760405162461bcd60e51b8152602060048201526018602482015277115490cdcc8c4e881a5b9d985b1a59081d1bdad95b88125160421b60448201526064016106d3565b600081815260046020526040902080546001600160a01b0319166001600160a01b0384169081179091558190612c6982610f31565b6001600160a01b03167f8c5be1e5ebec7d5bd14f71427d1e84f3dd0314c0f7b2291e5b200ac8c7c3b92560405160405180910390a45050565b600080612cae83610f31565b9050806001600160a01b0316846001600160a01b03161480612cf557506001600160a01b0380821660009081526005602090815260408083209388168352929052205460ff165b806122a55750836001600160a01b0316612d0e84610637565b6001600160a01b031614949350505050565b826001600160a01b0316612d3382610f31565b6001600160a01b031614612d595760405162461bcd60e51b81526004016106d3906140e3565b6001600160a01b038216612dbb5760405162461bcd60e51b8152602060048201526024808201527f4552433732313a207472616e7366657220746f20746865207a65726f206164646044820152637265737360e01b60648201526084016106d3565b826001600160a01b0316612dce82610f31565b6001600160a01b031614612df45760405162461bcd60e51b81526004016106d3906140e3565b600081815260046020908152604080832080546001600160a01b03199081169091556001600160a01b0387811680865260038552838620805460001901905590871680865283862080546001019055868652600290945282852080549092168417909155905184937fddf252ad1be2c89b69c2b068fc378daa952ba7f163c4a11628f55a4df523b3ef91a4505050565b60026007541415612ed75760405162461bcd60e51b815260206004820152601f60248201527f5265656e7472616e637947756172643a207265656e7472616e742063616c6c0060448201526064016106d3565b6002600755565b6000612eee600880546001019055565b6000612ef960085490565b9050612f053382613338565b612f0f81846134c3565b50600192915050565b6000612f27826201518061402f565b612f3384610e1061402f565b612f3e86603c61402f565b612f4988600161402f565b612f539042613f99565b612f5d9190613f99565b612f679190613f99565b612f719190613f99565b95945050505050565b6000826001600160a01b03168260405160006040518083038185875af1925050503d8060008114612fc7576040519150601f19603f3d011682016040523d82523d6000602084013e612fcc565b606091505b505090508061077457600080fd5b6001600755565b60005b6000828152600f60205260409020548110156131aa576000828152600f6020526040902080543391908390811061301d5761301d613fcc565b60009182526020909120600490910201546001600160a01b031614613109576000828152600f602052604090208054600191908390811061306057613060613fcc565b906000526020600020906004020160030160006101000a81548160ff021916908315150217905550613104600f600084815260200190815260200160002082815481106130af576130af613fcc565b60009182526020808320600490920290910154858352600f909152604090912080546001600160a01b0390921691849081106130ed576130ed613fcc565b906000526020600020906004020160010154612f7a565b613156565b6000828152600f602052604090208054600191908390811061312d5761312d613fcc565b906000526020600020906004020160030160016101000a81548160ff0219169083151502179055505b613164600080600080612f18565b6000838152600f6020526040902080548390811061318457613184613fcc565b6000918252602090912060026004909202010155806131a281613fb1565b915050612fe4565b506000818152600f60205260408120612bd2916138da565b816001600160a01b0316836001600160a01b031614156132245760405162461bcd60e51b815260206004820152601960248201527f4552433732313a20617070726f766520746f2063616c6c65720000000000000060448201526064016106d3565b6001600160a01b03838116600081815260056020908152604080832094871680845294825291829020805460ff191686151590811790915591519182527f17307eab39ab6107e8899845ad3d59bd9653f200f220920489ca2b5937696c31910160405180910390a3505050565b61329c848484612d20565b6132a88484848461355d565b611def5760405162461bcd60e51b81526004016106d390614128565b60606132cf82612bd5565b60006132e660408051602081019091526000815290565b905060008151116133065760405180602001604052806000815250613331565b8061331084613658565b6040516020016133219291906140b4565b6040516020818303038152906040525b9392505050565b6001600160a01b03821661338e5760405162461bcd60e51b815260206004820181905260248201527f4552433732313a206d696e7420746f20746865207a65726f206164647265737360448201526064016106d3565b6000818152600260205260409020546001600160a01b0316156133f35760405162461bcd60e51b815260206004820152601c60248201527f4552433732313a20746f6b656e20616c7265616479206d696e7465640000000060448201526064016106d3565b6000818152600260205260409020546001600160a01b0316156134585760405162461bcd60e51b815260206004820152601c60248201527f4552433732313a20746f6b656e20616c7265616479206d696e7465640000000060448201526064016106d3565b6001600160a01b038216600081815260036020908152604080832080546001019055848352600290915280822080546001600160a01b0319168417905551839291907fddf252ad1be2c89b69c2b068fc378daa952ba7f163c4a11628f55a4df523b3ef908290a45050565b6000828152600260205260409020546001600160a01b031661353e5760405162461bcd60e51b815260206004820152602e60248201527f45524337323155524953746f726167653a2055524920736574206f66206e6f6e60448201526d32bc34b9ba32b73a103a37b5b2b760911b60648201526084016106d3565b6000828152600660209081526040909120825161077492840190613856565b60006001600160a01b0384163b1561365057604051630a85bd0160e11b81526001600160a01b0385169063150b7a02906135a190339089908890889060040161417a565b6020604051808303816000875af19250505080156135dc575060408051601f3d908101601f191682019092526135d9918101906141b7565b60015b613636573d80801561360a576040519150601f19603f3d011682016040523d82523d6000602084013e61360f565b606091505b50805161362e5760405162461bcd60e51b81526004016106d390614128565b805181602001fd5b6001600160e01b031916630a85bd0160e11b1490506122a5565b5060016122a5565b60606000613665836136f5565b600101905060008167ffffffffffffffff81111561368557613685613be5565b6040519080825280601f01601f1916602001820160405280156136af576020820181803683370190505b5090508181016020015b600019016f181899199a1a9b1b9c1cb0b131b232b360811b600a86061a8153600a85049450846136e8576136ed565b6136b9565b509392505050565b60008072184f03e93ff9f4daa797ed6e38ed64bf6a1f0160401b83106137345772184f03e93ff9f4daa797ed6e38ed64bf6a1f0160401b830492506040015b6d04ee2d6d415b85acef81000000008310613760576d04ee2d6d415b85acef8100000000830492506020015b662386f26fc10000831061377e57662386f26fc10000830492506010015b6305f5e1008310613796576305f5e100830492506008015b61271083106137aa57612710830492506004015b606483106137bc576064830492506002015b600a831061059f5760010192915050565b604051806101a001604052806060815260200160608152602001606081526020016000815260200160006001600160a01b0316815260200160006001600160a01b0316815260200160006001600160a01b031681526020016000815260200160001515815260200160001515815260200160001515815260200160008152602001600081525090565b82805461386290613f48565b90600052602060002090601f01602090048101928261388457600085556138ca565b82601f1061389d57805160ff19168380011785556138ca565b828001600101855582156138ca579182015b828111156138ca5782518255916020019190600101906138af565b506138d69291506138fb565b5090565b5080546000825560040290600052602060002090810190612bd29190613910565b5b808211156138d657600081556001016138fc565b5b808211156138d65780546001600160a01b0319168155600060018201819055600282015560038101805461ffff19169055600401613911565b6001600160e01b031981168114612bd257600080fd5b60006020828403121561397257600080fd5b81356133318161394a565b60005b83811015613998578181015183820152602001613980565b83811115611def5750506000910152565b600081518084526139c181602086016020860161397d565b601f01601f19169290920160200192915050565b60208152600061333160208301846139a9565b6000602082840312156139fa57600080fd5b5035919050565b80356001600160a01b0381168114613a1857600080fd5b919050565b60008060408385031215613a3057600080fd5b613a3983613a01565b946020939093013593505050565b60006101a08251818552613a5d828601826139a9565b91505060208301518482036020860152613a7782826139a9565b91505060408301518482036040860152613a9182826139a9565b915050606083015160608501526080830151613ab860808601826001600160a01b03169052565b5060a0830151613ad360a08601826001600160a01b03169052565b5060c0830151613aee60c08601826001600160a01b03169052565b5060e083015160e085015261010080840151613b0d8287018215159052565b5050610120838101511515908501526101408084015115159085015261016080840151908501526101809283015192909301919091525090565b6000602080830181845280855180835260408601915060408160051b870101925083870160005b82811015613b9c57603f19888603018452613b8a858351613a47565b94509285019290850190600101613b6e565b5092979650505050505050565b600080600060608486031215613bbe57600080fd5b613bc784613a01565b9250613bd560208501613a01565b9150604084013590509250925092565b634e487b7160e01b600052604160045260246000fd5b600067ffffffffffffffff80841115613c1657613c16613be5565b604051601f8501601f19908116603f01168101908282118183101715613c3e57613c3e613be5565b81604052809350858152868686011115613c5757600080fd5b858560208301376000602087830101525050509392505050565b600082601f830112613c8257600080fd5b61333183833560208501613bfb565b600080600080600060a08688031215613ca957600080fd5b853567ffffffffffffffff80821115613cc157600080fd5b613ccd89838a01613c71565b96506020880135915080821115613ce357600080fd5b613cef89838a01613c71565b95506040880135915080821115613d0557600080fd5b613d1189838a01613c71565b94506060880135915080821115613d2757600080fd5b50613d3488828901613c71565b95989497509295608001359392505050565b602080825282518282018190526000919060409081850190868401855b82811015613db457815180516001600160a01b031685528681015187860152858101518686015260608082015115159086015260809081015115159085015260a09093019290850190600101613d63565b5091979650505050505050565b600060208284031215613dd357600080fd5b61333182613a01565b6020815260006133316020830184613a47565b60008060408385031215613e0257600080fd5b50508035926020909101359150565b80358015158114613a1857600080fd5b60008060408385031215613e3457600080fd5b613e3d83613a01565b9150613e4b60208401613e11565b90509250929050565b60008060008060008060c08789031215613e6d57600080fd5b86359550613e7d60208801613e11565b95989597505050506040840135936060810135936080820135935060a0909101359150565b60008060008060808587031215613eb857600080fd5b613ec185613a01565b9350613ecf60208601613a01565b925060408501359150606085013567ffffffffffffffff811115613ef257600080fd5b8501601f81018713613f0357600080fd5b613f1287823560208401613bfb565b91505092959194509250565b60008060408385031215613f3157600080fd5b613f3a83613a01565b9150613e4b60208401613a01565b600181811c90821680613f5c57607f821691505b60208210811415613f7d57634e487b7160e01b600052602260045260246000fd5b50919050565b634e487b7160e01b600052601160045260246000fd5b60008219821115613fac57613fac613f83565b500190565b6000600019821415613fc557613fc5613f83565b5060010190565b634e487b7160e01b600052603260045260246000fd5b6020808252602d908201527f4552433732313a2063616c6c6572206973206e6f7420746f6b656e206f776e6560408201526c1c881bdc88185c1c1c9bdd9959609a1b606082015260800190565b600081600019048311821515161561404957614049613f83565b500290565b60008261406b57634e487b7160e01b600052601260045260246000fd5b500490565b60008282101561408257614082613f83565b500390565b602080825260139082015272556e617574686f72697a656420656e7469747960681b604082015260600190565b600083516140c681846020880161397d565b8351908301906140da81836020880161397d565b01949350505050565b60208082526025908201527f4552433732313a207472616e736665722066726f6d20696e636f72726563742060408201526437bbb732b960d91b606082015260800190565b60208082526032908201527f4552433732313a207472616e7366657220746f206e6f6e20455243373231526560408201527131b2b4bb32b91034b6b83632b6b2b73a32b960711b606082015260800190565b6001600160a01b03858116825284166020820152604081018390526080606082018190526000906141ad908301846139a9565b9695505050505050565b6000602082840312156141c957600080fd5b81516133318161394a56fea2646970667358221220744c3a8628cf4747e757c5d81b761ed9cd886460e651b9cbda9598e86ffc764d64736f6c634300080b0033",
  "linkReferences": {},
  "deployedLinkReferences": {}
}